{
  "_format": "hh-sol-artifact-1",
  "contractName": "BuyMeACoffee",
  "sourceName": "contracts/BuyMeACoffee.sol",
  "abi": [
    {
      "inputs": [],
      "stateMutability": "nonpayable",
      "type": "constructor"
    },
    {
      "anonymous": false,
      "inputs": [
        {
          "indexed": false,
          "internalType": "address",
          "name": "from",
          "type": "address"
        },
        {
          "indexed": false,
          "internalType": "uint256",
          "name": "timestamp",
          "type": "uint256"
        },
        {
          "indexed": false,
          "internalType": "string",
          "name": "name",
          "type": "string"
        },
        {
          "indexed": false,
          "internalType": "string",
          "name": "message",
          "type": "string"
        }
      ],
      "name": "newMemo",
      "type": "event"
    },
    {
      "inputs": [
        {
          "internalType": "string",
          "name": "_name",
          "type": "string"
        },
        {
          "internalType": "string",
          "name": "_message",
          "type": "string"
        }
      ],
      "name": "buyMeACoffee",
      "outputs": [],
      "stateMutability": "payable",
      "type": "function"
    },
    {
      "inputs": [
        {
          "internalType": "address",
          "name": "newOwner",
          "type": "address"
        }
      ],
      "name": "changeOwner",
      "outputs": [],
      "stateMutability": "nonpayable",
      "type": "function"
    },
    {
      "inputs": [],
      "name": "getMemos",
      "outputs": [
        {
          "components": [
            {
              "internalType": "address",
              "name": "from",
              "type": "address"
            },
            {
              "internalType": "uint256",
              "name": "timestamp",
              "type": "uint256"
            },
            {
              "internalType": "string",
              "name": "name",
              "type": "string"
            },
            {
              "internalType": "string",
              "name": "message",
              "type": "string"
            }
          ],
          "internalType": "struct BuyMeACoffee.Memo[]",
          "name": "",
          "type": "tuple[]"
        }
      ],
      "stateMutability": "view",
      "type": "function"
    },
    {
      "inputs": [],
      "name": "withdrawTips",
      "outputs": [],
      "stateMutability": "nonpayable",
      "type": "function"
    }
  ],
  "bytecode": "0x608060405234801561001057600080fd5b50336000806101000a81548173ffffffffffffffffffffffffffffffffffffffff021916908373ffffffffffffffffffffffffffffffffffffffff160217905550610e63806100606000396000f3fe60806040526004361061003f5760003560e01c80633aaa74b214610044578063865c51721461005b578063a6f9dae114610086578063db136f6d146100af575b600080fd5b34801561005057600080fd5b506100596100cb565b005b34801561006757600080fd5b5061007061012b565b60405161007d919061075a565b60405180910390f35b34801561009257600080fd5b506100ad60048036038101906100a891906107bc565b61030e565b005b6100c960048036038101906100c4919061091e565b6103df565b005b60008054906101000a900473ffffffffffffffffffffffffffffffffffffffff1673ffffffffffffffffffffffffffffffffffffffff166108fc479081150290604051600060405180830381858888f1935050505061012957600080fd5b565b60606001805480602002602001604051908101604052809291908181526020016000905b8282101561030557838290600052602060002090600402016040518060800160405290816000820160009054906101000a900473ffffffffffffffffffffffffffffffffffffffff1673ffffffffffffffffffffffffffffffffffffffff1673ffffffffffffffffffffffffffffffffffffffff168152602001600182015481526020016002820180546101e2906109c5565b80601f016020809104026020016040519081016040528092919081815260200182805461020e906109c5565b801561025b5780601f106102305761010080835404028352916020019161025b565b820191906000526020600020905b81548152906001019060200180831161023e57829003601f168201915b50505050508152602001600382018054610274906109c5565b80601f01602080910402602001604051908101604052809291908181526020018280546102a0906109c5565b80156102ed5780601f106102c2576101008083540402835291602001916102ed565b820191906000526020600020905b8154815290600101906020018083116102d057829003601f168201915b5050505050815250508152602001906001019061014f565b50505050905090565b60008054906101000a900473ffffffffffffffffffffffffffffffffffffffff1673ffffffffffffffffffffffffffffffffffffffff163373ffffffffffffffffffffffffffffffffffffffff161461039c576040517f08c379a000000000000000000000000000000000000000000000000000000000815260040161039390610a79565b60405180910390fd5b336000806101000a81548173ffffffffffffffffffffffffffffffffffffffff021916908373ffffffffffffffffffffffffffffffffffffffff16021790555050565b60003411610422576040517f08c379a000000000000000000000000000000000000000000000000000000000815260040161041990610ae5565b60405180910390fd5b600160405180608001604052803373ffffffffffffffffffffffffffffffffffffffff16815260200142815260200184815260200183815250908060018154018082558091505060019003906000526020600020906004020160009091909190915060008201518160000160006101000a81548173ffffffffffffffffffffffffffffffffffffffff021916908373ffffffffffffffffffffffffffffffffffffffff1602179055506020820151816001015560408201518160020190816104ea9190610cb1565b5060608201518160030190816105009190610cb1565b5050507f9d3a1a6a7a31ef2d2a038d45b3d5fadbcac748ac4ccccac9da7c8cb6b6424fc3334284846040516105389493929190610dda565b60405180910390a15050565b600081519050919050565b600082825260208201905092915050565b6000819050602082019050919050565b600073ffffffffffffffffffffffffffffffffffffffff82169050919050565b600061059b82610570565b9050919050565b6105ab81610590565b82525050565b6000819050919050565b6105c4816105b1565b82525050565b600081519050919050565b600082825260208201905092915050565b60005b838110156106045780820151818401526020810190506105e9565b60008484015250505050565b6000601f19601f8301169050919050565b600061062c826105ca565b61063681856105d5565b93506106468185602086016105e6565b61064f81610610565b840191505092915050565b600060808301600083015161067260008601826105a2565b50602083015161068560208601826105bb565b506040830151848203604086015261069d8282610621565b915050606083015184820360608601526106b78282610621565b9150508091505092915050565b60006106d0838361065a565b905092915050565b6000602082019050919050565b60006106f082610544565b6106fa818561054f565b93508360208202850161070c85610560565b8060005b85811015610748578484038952815161072985826106c4565b9450610734836106d8565b925060208a01995050600181019050610710565b50829750879550505050505092915050565b6000602082019050818103600083015261077481846106e5565b905092915050565b6000604051905090565b600080fd5b600080fd5b61079981610590565b81146107a457600080fd5b50565b6000813590506107b681610790565b92915050565b6000602082840312156107d2576107d1610786565b5b60006107e0848285016107a7565b91505092915050565b600080fd5b600080fd5b7f4e487b7100000000000000000000000000000000000000000000000000000000600052604160045260246000fd5b61082b82610610565b810181811067ffffffffffffffff8211171561084a576108496107f3565b5b80604052505050565b600061085d61077c565b90506108698282610822565b919050565b600067ffffffffffffffff821115610889576108886107f3565b5b61089282610610565b9050602081019050919050565b82818337600083830152505050565b60006108c16108bc8461086e565b610853565b9050828152602081018484840111156108dd576108dc6107ee565b5b6108e884828561089f565b509392505050565b600082601f830112610905576109046107e9565b5b81356109158482602086016108ae565b91505092915050565b6000806040838503121561093557610934610786565b5b600083013567ffffffffffffffff8111156109535761095261078b565b5b61095f858286016108f0565b925050602083013567ffffffffffffffff8111156109805761097f61078b565b5b61098c858286016108f0565b9150509250929050565b7f4e487b7100000000000000000000000000000000000000000000000000000000600052602260045260246000fd5b600060028204905060018216806109dd57607f821691505b6020821081036109f0576109ef610996565b5b50919050565b600082825260208201905092915050565b7f6f6e6c792063757272656e74206f776e65722063616e2063616c6c207468697360008201527f2066756e6374696f6e0000000000000000000000000000000000000000000000602082015250565b6000610a636029836109f6565b9150610a6e82610a07565b604082019050919050565b60006020820190508181036000830152610a9281610a56565b9050919050565b7f63616e206e6f74206166666f726420636f666665000000000000000000000000600082015250565b6000610acf6014836109f6565b9150610ada82610a99565b602082019050919050565b60006020820190508181036000830152610afe81610ac2565b9050919050565b60008190508160005260206000209050919050565b60006020601f8301049050919050565b600082821b905092915050565b600060088302610b677fffffffffffffffffffffffffffffffffffffffffffffffffffffffffffffffff82610b2a565b610b718683610b2a565b95508019841693508086168417925050509392505050565b6000819050919050565b6000610bae610ba9610ba4846105b1565b610b89565b6105b1565b9050919050565b6000819050919050565b610bc883610b93565b610bdc610bd482610bb5565b848454610b37565b825550505050565b600090565b610bf1610be4565b610bfc818484610bbf565b505050565b5b81811015610c2057610c15600082610be9565b600181019050610c02565b5050565b601f821115610c6557610c3681610b05565b610c3f84610b1a565b81016020851015610c4e578190505b610c62610c5a85610b1a565b830182610c01565b50505b505050565b600082821c905092915050565b6000610c8860001984600802610c6a565b1980831691505092915050565b6000610ca18383610c77565b9150826002028217905092915050565b610cba826105ca565b67ffffffffffffffff811115610cd357610cd26107f3565b5b610cdd82546109c5565b610ce8828285610c24565b600060209050601f831160018114610d1b5760008415610d09578287015190505b610d138582610c95565b865550610d7b565b601f198416610d2986610b05565b60005b82811015610d5157848901518255600182019150602085019450602081019050610d2c565b86831015610d6e5784890151610d6a601f891682610c77565b8355505b6001600288020188555050505b505050505050565b610d8c81610590565b82525050565b610d9b816105b1565b82525050565b6000610dac826105ca565b610db681856109f6565b9350610dc68185602086016105e6565b610dcf81610610565b840191505092915050565b6000608082019050610def6000830187610d83565b610dfc6020830186610d92565b8181036040830152610e0e8185610da1565b90508181036060830152610e228184610da1565b90509594505050505056fea26469706673582212204164b1f0209eb6453050be6eab347629d0b7733e48fa3ffbe48d86cadd01b5a164736f6c63430008110033",
  "linkReferences": {},
  "deployedLinkReferences": {}
}